:02000004080AE8
:1000000000000A08C8440A080000060006000501AE
:080010000402E80500000000F5
:04001800F8380A08A2
:10001C0009480A4908B5884205D0094A824202D0EB
:10002C00121A03F09FFA0748074A0021121A03F02C
:10003C00BFFA064808BD00BF0000002034440A087F
:10004C006C0000206C0000209C0600209C06002008
:10005C0070B502F01DFA074B074C1E46E41AA408B3
:10006C000025A54204D056F8253098470135F8E70D
:10007C0070BD00BFF4430A0828440A0800F04AB8CF
:10008C0008B500F0E5F8BDE8084002F0C3B901F08E
:10009C00EFBB01F0EDBB01F0F3BB01F0F1BB0000D5
:1000AC0008B5034A00210C2001F006FBFEE700BF57
:1000BC00D5140A080078B0FA80F040097047012383
:1000CC00037070470846014901F049BF0C390A0812
:1000DC0070B506460025D6F8C8309D4217DA56F89A
:1000EC00254094B104F13C0001F0A0FE04F1240081
:1000FC0001F09CFE04F1140001F098FE204601F082
:10010C0095FE4C21204603F0CEF80135E3E730464E
:10011C0070BD00002DE9F04190B00023042204A929
:10012C00424801F075FB424B00221146586801F021
:10013C0017FB811C0AA802F0CBFC9DF82C109DF833
:10014C002E3001919DF82D109DF82F20009104A8C0
:10015C00384901F0A5FB384B00221B7804A98DF817
:10016C00003002A83C2302F001FB039C7CB16368C5
:10017C00013B63605BB9236820469B689847A36882
:10018C00013BA3601BB923682046DB6898472B4DC5
:10019C00D5F8C830312B33DC4C20FFF778FF044600
:1001AC0038B3274904F1140701F087FE04F1240643
:1001BC002349384601F081FE2149304601F07DFE8D
:1001CC001F4904F13C0001F078FE1E49204601F065
:1001DC00C6FE1D4B4FF0010863631949C4F810802B
:1001EC00384601F0BCFE1649304601F0B8FE84F8E2
:1001FC003880D5F8C83045F823400133C5F8C830ED
:10020C004FF4B470FFF743FF054608B100F0FCFE55
:10021C000E4C28460949256001F040F95021206810
:10022C0000F042FF10B0BDE8F08100BF24390A088D
:10023C00D00500202E390A083C0100207000002057
:10024C00443A0A083A390A08D1000A084001002049
:10025C00024B186808B101F0E5B870474001002066
:10026C0008B5074B01221A7001F01EF9054800234E
:10027C00C0F8C830044A0549BDE8084003F00EB880
:10028C003C010020700000206C000020DD000A08FA
:10029C0010B5044603689B689847A368013BA360AC
:1002AC002BB923682046BDE81040DB68184710BD09
:1002BC0010B5064B04460360806928B14368013BC6
:1002CC0043600BB9FFF7E4FF204610BD2C3F0A0832
:1002DC0010B50446FFF7ECFF20461C2102F0E3FFAB
:1002EC00204610BD0EB400B58CB00DAA52F8041BFC
:1002FC0020238DE80600039204930168002304AACE
:10030C000120059301F0E8F90CB05DF804EB03B0A3
:10031C0070470EB400B58CB00DAA52F8041B202304
:10032C008DE80600039204930168002304AA1E20A2
:10033C00059301F0D1F90CB05DF804EB03B07047F4
:10034C00F0B50C46CA4F89B0CA4E054639466846C8
:10035C0001F0B3FD314604A801F0AFFD04AA6946D3
:10036C00204601F07AFE04A801F060FD684601F019
:10037C005DFDC149684601F0A0FD314604A801F0BD
:10038C009CFD04AA6946204601F067FE04A801F012
:10039C004DFD684601F04AFDB849684601F08DFDF7
:1003AC00B74904A801F089FD04AA6946204601F06A
:1003BC0054FE04A801F03AFD684601F037FDB1493E
:1003CC00684601F07AFDB04904A801F076FD04AA54
:1003DC006946204601F041FE04A801F027FD68465D
:1003EC0001F024FDA949684601F067FDA84904A85D
:1003FC0001F063FD04AA6946204601F02EFE04A814
:10040C0001F014FD684601F011FDA249684601F0A7
:10041C0054FDA14904A801F050FD04AA69462046E8
:10042C0001F01BFE04A801F001FD684601F0FEFC82
:10043C009A49684601F041FD994904A801F03DFD37
:10044C0004AA6946204601F008FE04A801F0EEFC5F
:10045C00684601F0EBFC9349684601F02EFD924989
:10046C0004A801F02AFD04AA6946204601F0F5FD16
:10047C0004A801F0DBFC8D4E684601F0D7FC8C49DA
:10048C00684601F01AFD314604A801F016FD04AAD5
:10049C006946204601F0E1FD04A801F0C7FC68465E
:1004AC0001F0C4FC8349684601F007FD824904A8A9
:1004BC0001F003FD04AA6946204601F0CEFD04A814
:1004CC0001F0B4FC684601F0B1FC7C49684601F0CF
:1004DC00F4FC7B4904A801F0F0FC04AA6946204610
:1004EC0001F0BBFD04A801F0A1FC684601F09EFCE4
:1004FC007449684601F0E1FC734904A801F0DDFC85
:10050C0004AA6946204601F0A8FD04A801F08EFC5F
:10051C00684601F08BFC6D49684601F0CEFC39460B
:10052C0004A801F0CAFC04AA6946204601F095FD16
:10053C0004A801F07BFC684601F078FC644968462D
:10054C0001F0BBFC634904A801F0B7FC04AA69469E
:10055C00204601F082FD04A801F068FC684601F019
:10056C0065FC5D49684601F0A8FC5C4904A801F0F3
:10057C00A4FC04AA6946204601F06FFD04A801F012
:10058C0055FC684601F052FC5549684601F095FC53
:10059C00544904A801F091FC04AA6946204601F0D4
:1005AC005CFD04A801F042FC684601F03FFC4E499A
:1005BC00684601F082FC4D4904A801F07EFC04AAB7
:1005CC006946204601F049FD04A801F02FFC68465D
:1005DC0001F02CFC4649684601F06FFC454904A823
:1005EC0001F06BFC04AA6946204601F036FD04A814
:1005FC0001F01CFC684601F019FC3F49684601F00B
:10060C005CFC3E4904A801F058FC04AA694620464B
:10061C0001F023FD04A801F009FC684601F006FC7A
:10062C003749684601F049FC364904A801F045FCFD
:10063C0004AA6946204601F010FD04A801F0F6FB5F
:10064C00684601F0F3FB3049684601F036FC2F494F
:10065C0004A801F032FC04AA6946204601F0FDFC16
:10066C0004A801F0E3FB684601F0E0FB50E000BF9A
:10067C003C390A083E400A083E390A0842390A0841
:10068C0046390A0848390A084C390A084E390A080A
:10069C0052390A0854390A0858390A085A390A08CA
:1006AC005E390A0860390A0864390A086A390A0886
:1006BC0066390A086C390A0870390A0872390A084E
:1006CC0076390A0878390A087C390A087E390A080A
:1006DC0082390A0886390A0888390A088C390A08C6
:1006EC008E390A0892390A0894390A0898390A0886
:1006FC009A390A08273A0A089E390A08A2390A08C0
:10070C00A4390A08A8390A08AA390A08AE390A080D
:10071C007549684601F0D1FB744904A801F0CDFB82
:10072C0004AA6946204601F098FC04A801F07EFB5F
:10073C00684601F07BFB6E49684601F0BEFB6D49D3
:10074C0004A801F0BAFB04AA6946204601F085FC16
:10075C0004A801F06BFB684601F068FB664968462B
:10076C0001F0ABFB654904A801F0A7FB04AA69469C
:10077C00204601F072FC04A801F058FB684601F019
:10078C0055FB5F49684601F098FB5E4904A801F0EF
:10079C0094FB04AA6946204601F05FFC04A801F012
:1007AC0045FB684601F042FB5749684601F085FB62
:1007BC00564904A801F081FB04AA6946204601F0C1
:1007CC004CFC04A801F032FB684601F02FFB5049A9
:1007DC00684601F072FB314604A801F06EFB04AAD6
:1007EC006946204601F039FC04A801F01FFB68465D
:1007FC0001F01CFB4749684601F05FFB464904A821
:10080C0001F05BFB04AA6946204601F026FC04A813
:10081C0001F00CFB684601F009FB4049684601F009
:10082C004CFB3F4904A801F048FB04AA694620464A
:10083C0001F013FC04A801F0F9FA684601F0F6FA8D
:10084C003849684601F039FB374904A801F035FBFB
:10085C0004AA6946204601F000FC04A801F0E6FA5F
:10086C00684601F0E3FA3149684601F026FB30494D
:10087C0004A801F022FB04AA6946204601F0EDFB16
:10088C0004A801F0D3FA684601F0D0FA2949684669
:10089C0001F013FB284904A801F00FFB04AA6946D8
:1008AC00204601F0DAFB04A801F0C0FA684601F01A
:1008BC00BDFA2249684601F000FB214904A801F069
:1008CC00FCFA04AA6946204601F0C7FB04A801F013
:1008DC00ADFA684601F0AAFA2146284601F02CFB35
:1008EC00284609B0F0BD00BFB0390A08B4390A086F
:1008FC00B6390A08BA390A08BC390A0846400A0847
:10090C00C0390A08C4390A08C6390A08CA390A089B
:10091C00CC390A08D0390A08D4390A08D6390A0859
:10092C00DA390A08DC390A08E0390A08E2390A0817
:10093C00E6390A08E8390A0822390A08EC390A08A3
:10094C00F0390A0838B504460D4D01F00FFA294666
:10095C0004F1240001F0B1FA294604F1440001F03D
:10096C00ACFA0023237723626365A365E3652366F2
:10097C006363A363236484F86430204638BD00BFEE
:10098C00443A0A080121406B02F08DBC10B50446B4
:10099C00FFF7F8FF04F1440001F048FA04F12400D9
:1009AC0001F044FA2046FFF783FC204610BD0000FE
:1009BC0070B506460546074B00F5A87446F80C3B87
:1009CC00B44204D06C3C2046FFF7E0FFF8E7284621
:1009DC0070BD00BFF43E0A0810B50446FFF7E8FFEF
:1009EC0020464FF4B47102F05EFC204610BD0000AE
:1009FC00037F032B9ABF024A52F823000148704729
:100A0C00DC3E0A08F2390A0837B504460D46217750
:100A1C0000F062FD023D012D0146206209D92046FD
:100A2C00FFF7E6FFA26E0091034603490348FFF768
:100A3C0059FC03B030BD00BFFA390A085001002040
:100A4C0038B500230446836380F83C30406B1D4668
:100A5C0008B1FFF722FB656304F124000249BDE8ED
:100A6C00384001F07CBA00BF443A0A08F0B50F4692
:100A7C0085B0164680B32F2102F01CFE70B3441CC7
:100A8C00254615F8011B41B32F2911D0202924D05C
:100A9C000A2922D03F290BD0262909D0384601F04B
:100AAC00A3FA2C46ECE70A2907D0304601F09CFA51
:100ABC0014F8011F11F0DF0FF5D139466846FFF726
:100ACC003FFC684601F0B2F968463146FFF738FC46
:100ADC00684601F0ABF900E000E0012005B0F0BD84
:100AEC0008B5054902F057FE20B10F3002F028FD81
:100AFC0020EAE07008BD00BF193A0A0808B506499B
:100B0C0002F049FE30B105490A3002F09FFD003079
:100B1C0018BF012008BD00BF293A0A08353A0A0857
:100B2C002DE9F0470446481D0E46FFF7B2FA05467C
:100B3C004FF0203345F8043B324607462946204601
:100B4C0000F077FF061E40F399804FF0000805F87F
:100B5C00068094F83C30002B7CD13B790D2B08D0CF
:100B6C000A2B06D04849384602F015FE80B980465B
:100B7C0019E02946E06A626A002302449842F1DDDA
:100B8C0012F801ED0133042B01F801EDF6D1E9E780
:100B9C00012310F1040884F83C3004D0002390F8B1
:100BAC000490037100E0C146284602F0B4FDE36AEC
:100BBC001844B0F5006F04D2294604F1240001F06A
:100BCC0004FAB8F1000F01D088F8009094F83C308A
:100BDC0053B3606AFFF784FF81464FF0000A034667
:100BEC00C4F840A0A26E29492948FFF77BFBB9F550
:100BFC00006F11DCB9F1000F0FD0A36B99450CD02D
:100C0C00606B08B1FFF749FA09F10100FFF741FAEF
:100C1C0000236063037000E0D146C4F83890606A2A
:100C2C00FFF76CFF84F86400A36B002B26DDB8F192
:100C3C00000F23D0C5EB0805761B9E42A8BF1E46AD
:100C4C0041463246606B02F08DFC636B00222664D9
:100C5C009A5513E0206CA36B1B1A002B0EDD9E42E1
:100C6C00A8BF1E46636B32461844294602F07AFC34
:100C7C00236C1E44636B266403F806803846BDE87B
:100C8C00F047FFF70ABA00BF403A0A08453A0A088B
:100C9C00500100202DE9F04385B00D9D1F466B1CC3
:100CAC00044688469146109E03D10C9802F033FD01
:100CBC0005464B4642461F49684601F06FFA6946A5
:100CCC00204601F044F9684601F0B0F86FB13B786A
:100CDC005BB13A461849684601F060FA694620460D
:100CEC0001F065F9684601F0A1F89DF83C301BB1A4
:100CFC001249204601F069F92EB133781BB1314607
:100D0C00204601F062F99DF838301BB10C492046A1
:100D1C0001F05BF90C9B2A4668460A4901F03EFA41
:100D2C006946204601F043F9684601F07FF805B0AA
:100D3C00BDE8F083643A0A08A43A0A08BB3A0A08E8
:100D4C00D43A0A08093B0A082DE9F04F00230B702E
:100D5C00466A9BB004460F4690469849042230469A
:100D6C0002F004FD88B104229549304602F0FEFCE5
:100D7C0070B107229349304602F0F8FC002814BFEA
:100D8C004FF0000A4FF0030A04E04FF0010A01E0B3
:100D9C004FF0020A8C4908A801F08FF88A490CA878
:100DAC0001F08BF80CAA08A9F01CFFF75FFE0546B2
:100DBC00002800F0A5800C9BA26E00938349089B31
:100DCC008348FFF78FFAD8F858B1089BBBF1000F96
:100DDC0066D0DBF8C8204FF000094A4507925FDD6A
:100DEC005BF8295019462868069302F011FC069B03
:100DFC0018B109F10109079AEFE72A6975490092C0
:100E0C007348A26EFFF76EFA2B69012B48D16E491D
:100E1C0010A801F052F8089B179615930C9B10A97B
:100E2C001693636B14A81893A36BCDF850A0199369
:100E3C006B6B9847129BA26E67496548FFF752FA95
:100E4C00EE6B94F86420E9690496039295F83820C7
:100E5C00109B02924FF0FF3204F144000192009378
:100E6C0000296ED1584B5D4A5D49FFF713FFE36CC7
:100E7C00A26E5C495648FFF735FAE26C616C20466D
:100E8C0000F065FDE36CA26E57495148FFF72AFA52
:100E9C00204600F070FD01233B7010A800F0C6FF47
:100EAC003E781EBBD8F86031DDF8209006934FF0E9
:100EBC001C0B069B9E4219DAD8F85C31002B70D0C3
:100ECC000BFB06F253F802A0494650469D1802F05F
:100EDC009FFB002838D099F80020002A5FD14349A5
:100EEC00504602F095FB00282ED058E000253B78A8
:100EFC005BB9089BA26E3E493548FFF7F3F904E055
:100F0C00A26E3C493248FFF7EDF93E78002E4AD1EB
:100F1C00A26E39492E48FFF7E5F938494FF0FF33F7
:100F2C008DE80A0004F14400049603960296264BC1
:100F3C00334AFFF7AFFEE26C616C204600F007FD10
:100F4C0031E06B6A6A698FE7EA6832B36A685346C4
:100F5C0001922A692B4900921D48A26EFFF7C2F933
:100F6C00AB691F49049394F8643004F14400039373
:100F7C002B7D02932B690193134B0093AB686A682A
:100F8C00FFF788FEE26C616C204600F0E0FC204626
:100F9C0000F0F1FC01233B70A9E71546A7E70136E9
:100FAC0087E71B68FFDE0CA800F040FF08A800F0E4
:100FBC003DFF28461BB0BDE8F08F00BF223B0A085E
:100FCC00273B0A082C3B0A08443A0A08343B0A0817
:100FDC0050010020AD3C0A08623B0A08833B0A081A
:100FEC00943B0A089B3B0A08BD3B0A08DE3B0A08F7
:100FFC00183C0A08463C0A086F3C0A089F3C0A0841
:10100C00943C0A08E93B0A0810B50446124B40F818
:10101C000C3BFFF797FC04F17800FFF793FC04F10D
:10102C00E400FFF78FFC0023A360C4F85831C4F828
:10103C005C31C4F8603184F85031C4F85431C4F8D0
:10104C006431636701235022C4F8E03002236260EC
:10105C00C4F84C31204610BDF43E0A0890F85031CB
:10106C00022B9ABF024A52F823000248704700BF75
:10107C00FC3E0A08F2390A0810B580F850110446F3
:10108C0000F02AFA0146C4F854012046FFF7E6FFA7
:10109C000B46024602490348FFF724F910BD00BF76
:1010AC00D53C0A085001002038B504460D460548C9
:1010BC000549FFF72EF965602046BDE8384001214F
:1010CC00FFF7DABF50010020F43C0A0810B50446C3
:1010DC000A490B48FFF71DF9A06840B101F024FF45
:1010EC00A06810B103685B6898470023A360204692
:1010FC00BDE810400021FFF7BFBF00BF053D0A0847
:10110C005001002038B504460D460D480D49FFF737
:10111C0000F9A36813B12046FFF7D8FF65603020B3
:10112C00FEF7B5FF054618B10022A18801F0CCFEF0
:10113C00A5602046BDE838400121FFF79DBF00BFE8
:10114C0050010020153D0A0810B58968044611B1FC
:10115C0001F072FF03E04FF0FF3100F0D5FD2046A7
:10116C0010BD000070B5037F8EB004460D46032BF6
:10117C0000F23C81DFE813F004004700DD00EE00D4
:10118C0007A8FFF7E1FF089B0D9D6360099BA36017
:10119C000A9BE3600B9B23610C9B6361A3699D42DB
:1011AC000CD015B16B6801336B60A06928B1436832
:1011BC00013B43600BB9FFF76BF8A56107A8FFF77C
:1011CC0077F8204600F08CFD002800F00F810023FA
:1011DC0084F864302046FFF733FC20460121FFF7EA
:1011EC0013FC214607A800F0E3FB07A903A800F0B5
:1011FC00BBFF039BA26E7E497E48FFF773F803A8E2
:10120C0000F014FEF2E000F042FD064660B97A49A7
:10121C00A26E7848FFF766F8204600F077FC20466F
:10122C00FFF70EFC3146DEE094F86430B3B100F009
:10123C0053F9236A834207D803F51C5310339842A1
:10124C0094BF0023012305E01B1A6C4883428CBF1A
:10125C000023012323B3A26E694914E000F03CF98A
:10126C00236A984206D303F5FA62904294BF002396
:10127C00012305E01B1A634883428CBF0023012322
:10128C0073B1A26E60495B48FFF72CF8204600F062
:10129C003DFC2046FFF7D4FB00212046FFF7B4FBB2
:1012AC00204600F0F7FB002840F3A0800146B0F583
:1012BC00FA7FE36AA8BF4FF4FA71CA18B2F5006F4F
:1012CC0004D9C3F50061002940F390802046FFF754
:1012DC0027FC94F83C3043B3A26B236C9A4224D184
:1012EC00E36AA26E49494348FEF7FCFF00260EA9AB
:1012FC0001F81C6D2A462046FFF726FD6065204646
:10130C00FFF79EFBA665E66500F0E6F80221206675
:10131C002046FFF779FB9DF81C30002B66D1A26E9E
:10132C003B493448FEF7DEFF60E000F0D5F8206260
:10133C005CE000F0D1F8236E984203D38CBF0120FF
:10134C00002003E0181A013018BF012000284DD0EE
:10135C00032148E0436D33B9826E2E492548FEF7D0
:10136C00C1FF012000E00020616DA36D0A6993426A
:10137C0009DBE36D1F488DE80C00A26E0B68264953
:10138C00FEF7B0FF00E0A8B194F86450A26E45B12E
:10139C0022491848FEF7A6FF2046FFF751FB012112
:1013AC0021E01F491348FEF79DFF204600F0AEFBDD
:1013BC00294618E0D51AB5F57A6FC968A8BF4FF45D
:1013CC007A6519442A46204600F0C1FA204600F0FE
:1013DC00D2FAA26DE36D15440133A565E36500F007
:1013EC007BF8022120662046FFF70EFB0EB070BD85
:1013FC00283D0A08500100203B3D0A08EED8FFFFAB
:10140C00553D0A082EF8FFFF753D0A08923D0A0863
:10141C00AB3D0A08D03D0A08EB3D0A081B3E0A0802
:10142C003D3E0A0870B590F850310446012B02D0AD
:10143C00022B1BD070BD164B00221146586800F0D1
:10144C00AFF920B361682046FFF75CFEA368F3B1E7
:10145C0010491148FEF75DFFA06803681B699847A7
:10146C002046BDE870400221FFF706BE00F10C05D6
:10147C0000F5A87621462846FFF774FE2B7F1BB19A
:10148C0000F056FFC4F864016C35B542F2D170BD62
:10149C00D00500205D3E0A0850010020C0F858110C
:1014AC00704700F001B8000008B5024B1B681B68C0
:1014BC00019308BDB001060808B5024B1B685B68B8
:1014CC00019308BD9C01060808B5024B1B68DB683C
:1014DC00019308BD9C01060808B5024B1B685B69AB
:1014EC00019308BD9C01060808B5024B1B68DB691B
:1014FC00019308BD9C01060808B5024B1B689B6D47
:10150C00019308BD9C01060808B5024B1B68DB69FA
:10151C00019308BDD001060808B5024B1B689B69F6
:10152C00019308BDC401060808B5024B1B685B6A31
:10153C00019308BDC401060808B5024B1B689B6AE1
:10154C00019308BDC401060808B5024B1B68DB6A91
:10155C00019308BDC401060808B5024B1B681B6B40
:10156C00019308BDC401060808B5024B1B685B6BF0
:10157C00019308BDC401060808B5024B1B681B6C1F
:10158C00019308BDC401060808B5024B1B681B6813
:10159C00019308BDBC01060808B5024B1B685B68CB
:1015AC00019308BDBC01060808B5024B1B689B687B
:1015BC00019308BDBC01060808B5024B1B68DB682B
:1015CC00019308BDBC01060808B5024B1B681B69DA
:1015DC00019308BDBC01060808B5024B1B681B6AC9
:1015EC00019308BDBC01060808B5024B1B689B6A39
:1015FC00019308BDBC01060808B5024B1B68DB6AE9
:10160C00019308BDBC01060808B5024B1B681B6B97
:10161C00019308BDBC01060808B5024B1B68DB6BC7
:10162C00019308BDBC01060808B5024B1B685B6C36
:10163C00019308BDBC01060808B5024B1B681B686A
:10164C00019308BDD801060808B5024B1B681B693D
:10165C00019308BDD801060808B5024B1B685B69ED
:10166C00019308BDD801060808B5024B1B689B699D
:10167C00019308BDD801060808B5024B1B68DB694D
:10168C00019308BDD801060808B5024B1B681B6AFC
:10169C00019308BDD801060808B5024B1B685B6CAA
:1016AC00019308BDC001060808B5024B1B689B6C72
:1016BC00019308BDC001060808B5024B1B685B6BA3
:1016CC00019308BDA801020808B5024B1B681B6DED
:1016DC00019308BDA801020808B5024B1B685B6D9D
:1016EC00019308BDA801020808B5024B1B681B68D2
:1016FC00019308BDA401060808B5024B1B685B6882
:10170C00019308BDA401060808B5024B1B68DB6CED
:10171C00019308BDA401060808B5024B1B685B6D5C
:10172C00019308BDA401060808B5024B1B689B6D0C
:10173C00019308BDA401060808B5034B1B68D3F838
:10174C009030019308BD0000A401060808B5034BB6
:10175C001B68D3F89C30019308BD0000A401060857
:10176C0008B5024B1B681B68019308BDC80106082D
:10177C0008B5024B1B685B68019308BDC8010608DD
:10178C0008B5024B1B689B68019308BDC80106088D
:10179C0008B5024B1B68DB68019308BDC80106083D
:1017AC0008B5024B1B681B69019308BDC8010608EC
:1017BC0008B5024B1B685B69019308BDC80106089C
:1017CC0008B5024B1B689B69019308BDC80106084C
:1017DC0008B5024B1B68DB69019308BDC8010608FC
:1017EC0008B5024B1B681B6A019308BDC8010608AB
:1017FC0008B5024B1B681B6B019308BDC80106089A
:10180C0008B5024B1B685B6B019308BDC801060849
:10181C0008B5024B1B681B68019308BDCC01060878
:10182C0008B5024B1B689B68019308BDCC010608E8
:10183C0008B5024B1B685B69019308BDCC01060817
:10184C0008B5024B1B681B6A019308BDCC01060846
:10185C0008B5024B1B681B6B019308BDCC01060835
:10186C0008B5024B1B68DB6B019308BDCC01060865
:10187C0008B5024B1B681B68019308BDA001060844
:10188C0008B5024B1B685B68019308BDA0010608F4
:10189C0008B5024B1B689B68019308BDA0010608A4
:1018AC0008B5024B1B68DB68019308BDA001060854
:1018BC0008B5024B1B685B6A019308BDA0010608C2
:1018CC0008B5024B1B68DB6A019308BDA001060832
:1018DC0008B5024B1B681B6B019308BDA0010608E1
:1018EC0010B50446006818B1FFF7CAFF0023236047
:1018FC0010BD10B50446FFF7F3FF204610BD0000E5
:10190C004FF6FF7310B5084C00202060A080A0712A
:10191C0020816381FFF7F0FE2046BDE81040034AAA
:10192C00034901F0BBBC00BF440100206C00002047
:10193C00FF180A0837B502AC036804F8011DDD6B0B
:10194C00012247F230532146A84703B030BD10B4F2
:10195C000368DC6B47F23053A44610BC604737B5C4
:10196C0002AC036804F8011DDD6B2146134601220D
:10197C00A84703B030BD704770470020704710B5C2
:10198C000446142101F08FFC204610BDFEF783BBEA
:10199C0010B5044603689B689847A368013BA36095
:1019AC002BB923682046BDE81040DB68184710BDF2
:1019BC0070B5044606464D69044B8C3544F8043B1F
:1019CC000FCD0FC42B683046237070BDE4400A085D
:1019DC0010B543690446B3F88620B3F884309A42B4
:1019EC0005D06269B2F884301344187910BD0368CD
:1019FC001B6998470028F4D14FF0FF3010BD10B58B
:101A0C0043690446B3F88620B3F884309A4208D070
:101A1C006269B2F88430591CA2F884101344187906
:101A2C0010BD03681B6998470028F1D14FF0FF30B7
:101A3C0010BDF8B543691746B3F88620B3F8843067
:101A4C0005469A420E4606D103681B69984710B9A1
:101A5C004FF0FF3414E069693046B1F88430B1F8C6
:101A6C0086401944E41ABC4228BF3C460431224645
:101A7C0001F078FD6A69B2F884302344A2F884300E
:101A8C002046F8BD42690023A2F884304269A2F8CE
:101A9C008630704738B542690446B2F886301BB1BF
:101AAC00B2F884209A420CD0206901F0C9FB03687B
:101ABC00DB68984718B363691868FFF76DFD18B9B0
:101ACC001DE0FFF7DFFFEFE76069B0F886107F29B4
:101ADC0015D8051DC1F18002002329440068FFF7C9
:101AEC0073FD00280BDD6369B3F886200AB9A3F8EF
:101AFC0084206269B2F886301844A2F886006269C4
:101B0C00B2F88630B2F88400181A38BD38B543697B
:101B1C0004461868FFF740FD18B163691868FFF7B1
:101B2C005BFD6569FFF770FD28606069112200217B
:101B3C008C3001F03DFD2046BDE83840FFF7A2BFD8
:101B4C002DE9F0411F4603688AB0DB6A06460C4655
:101B5C0015469847384601F073FB0368DB689847D5
:101B6C00002856D000972B46062201210220D6F8D9
:101B7C001480FFF719FD2023C8F8000000270293FA
:101B8C00736903971B6801200193234B02AA0093EE
:101B9C0022493B46FFF798FD73691868FFF7FCFC78
:101BAC00002836D03046FFF76DFF0223ADF8083021
:101BBC002B0A8DF80A30E3794FF4FA508DF80C307B
:101BCC00A3798DF80B508DF80D3063798DF80E30AC
:101BDC0014F8043F8DF80F30FFF75EFD736905466E
:101BEC00102202A91868FFF7E7FC80462846FFF789
:101BFC0053FD0FCC75698C350FC523682B70B8F16C
:101C0C00000F05D033683046DB6A9847384600E051
:101C1C0001200AB0BDE8F081773F0A08703F0A083E
:101C2C0010B5436904461868FFF7B6FC08B90020E4
:101C3C0010BD206901F004FB0368DB68984700289D
:101C4C00F5D063691868FFF79FFCB0FA80F0400983
:101C5C0010BD2DE9F3410025456004460E4617469C
:101C6C009846FFF7DDFF60B160690195CDF8008003
:101C7C002B463A4631460068FFF7D6FC002803DABB
:101C8C0001E04FF0FF30606002B0BDE8F08138B584
:101C9C000446FFF7C5FF00BB6369B3F88610B3F8C1
:101CAC008420914219D11868FFF776FC28B163693A
:101CBC001868FFF769FC012801D000250EE02368A5
:101CCC0020461B699847002814BF0125002505D123
:101CDC0023682046DB6A984700E00125284638BD7A
:101CEC0008B5FFF79DFF003018BF012008BD10B5E7
:101CFC00044600230160A0F88430A0F886308830B8
:101D0C0000F0D8FE204610BD4FF47A7270B5826098
:101D1C00144A002343600260436183610446A0209F
:101D2C000E46FEF7B4F9054610B13146FFF7DFFF5A
:101D3C001420FEF7ACF9034628B101224260826000
:101D4C00094A05610260A0696561A36128B1436815
:101D5C00013B43600BB9FFF71BFE2046FFF792FED9
:101D6C00204670BD2C3F0A08103F0A0810B50446E7
:101D7C00FFF74AFC01462046FFF7C6FF204610BD80
:101D8C0010B504460068FFF707FC10B12068FFF798
:101D9C0023FC204610BD10B504692046FFF7F0FF68
:101DAC0024B12046BDE81040FEF775B910BD000007
:101DBC002DE9F0431F4603688FB0DB6A06460D46DB
:101DCC0090469847134801F0EEF900B302A800F0D2
:101DDC0071FE284601F09FFC002481B200943B4622
:101DEC0003AA2846FFF760FC80B9336809ADD3F825
:101DFC002090094B03AC08930FCC0FC523684246C7
:101E0C002B7008A93B463046C84700E020460FB06F
:101E1C00BDE8F083D8050020E4400A08704710B5EF
:101E2C0004460C2101F03FFA204610BD10B50446C3
:101E3C000068FFF725FD204610BD10B5044600686C
:101E4C0008B1FFF71DFD00232360A360636010BD84
:101E5C0038B504460D4600680131FFF719FD10B185
:101E6C0084E82100012038BD10B50368044613B185
:101E7C0043688B4207D22046FFF7EAFF20B1A368E4
:101E8C000BB922681370012010BD70B50E461146B7
:101E9C0004461546FFF7E8FF18B92046FFF7CDFFBB
:101EAC0009E02A463146A560206801F05BFB2268F8
:101EBC00A3680021D154204670BD38B500230446D8
:101ECC0003604360836003730D4639B1084601F02B
:101EDC0022FC294602462046FFF7D7FF204638BD94
:101EEC0038B5054600680C4660B16A688B689A4242
:101EFC0006D3096801F0ECFBA368AB6000230AE091
:101F0C00FFF7BEFC23682B6063686B60A368AB6053
:101F1C00002323606360A36038BD884210B50B4674
:101F2C00044607D0096819B19A68FFF7AEFF01E0C3
:101F3C00FFF783FF204610BD10B504460023036055
:101F4C00436083600373FFF7E8FF204610BD8842AF
:101F5C0010B5044601D0FFF7C3FF204610BD38B5BD
:101F6C0005460C4641B1084601F0D5FB2146024618
:101F7C002846FFF78AFF01E0FFF75FFF284638BDD0
:101F8C0070B504460E4609B9002070BD6AB183686D
:101F9C00D5182946FFF768FF0028F5D02068A368FC
:101FAC003146184401F094FBA560012070BD8A688D
:101FBC000968FFF7E5BF38B5044680688568FFF708
:101FCC00DFFFA3689868401B38BD38B505460C4642
:101FDC00084641B101F09FFB214602462846BDE868
:101FEC003840FFF7CDBF38BD07B500238DF804107E
:101FFC00012201A98DF80530FFF7C2FF03B05DF88F
:10200C0004FB08B58068FFF7EFFF08BD2DE9F04130
:10201C0015468A680F46CAB18368BBB19A4215D877
:10202C000668AB42304698BF03F1FF354FF0FF34E2
:10203C0006EB050840450DD8396801F0ACFB48B1FA
:10204C00831B9D4228BF1C460130F3E74FF0FF3045
:10205C00BDE8F0812046BDE8F0812DE9F74FD0F8BE
:10206C0008A0054688461646BAF1000F78D0D1F87C
:10207C0008B0BBF1000F73D097680468CBEB07076F
:10208C00002F0ED12046D8F8001001F084FB044636
:10209C00002865D0B268316801F064FAB068044475
:1020AC00F0E722DAA146D8F80010204601F073FBC5
:1020BC008346A8B1C4EB000A214652464846D14497
:1020CC0001F050FA4846B268316801F04BFAB36837
:1020DC00D8F808409944AB685C443B44AB60E2E7F9
:1020EC002146484601F0F4FA3AE0D1460B6819460D
:1020FC002046019301F04FFB20B100EB0B04B944D7
:10210C00019BF4E7D1452BD06B68994504D949461E
:10211C002846FFF79DFE18B3AA684FF00009013A54
:10212C00002A1DDB41462846FFF770FF041E17DB13
:10213C00D8F8083029682344AA681944D21AC81957
:10214C0001F01BFAAB682A683B44AB6002F80390C1
:10215C002868B2683168204401F004FA621EDFE797
:10216C00284603B0BDE8F08F30B50D46044685B067
:10217C00002302930360436083600373064B1421B6
:10218C0001930390FFF770FE2B6801A91B6828468A
:10219C009847204605B030BD943F0A080EB4FFB5F1
:1021AC0009AC54F8047B054623463A46052102A89F
:1021BC000194FFF77DFB06460B492846FFF77DFE91
:1021CC0031462846FFF750FE286830B123463A4680
:1021DC00711C0194FFF76CFBA860284604B0BDE8A5
:1021EC00F04003B0704700BF443A0A08F8B5064601
:1021FC000D468F180024BD420CD0336815F8011B16
:10220C009B6830469847002801DB0444F3E7002C18
:10221C0008BF04462046F8BD70B505460C46084676
:10222C0049B101F078FA2B68024621462846BDE8F0
:10223C007040DB68184770BD03689B681847012A1B
:10224C0098BF0A2230B50B468BB000218DF82410B4
:10225C000DF12304B3FBF2F505FB1233DBB2092BB2
:10226C0094BF30333733DBB2214604F801392B46A7
:10227C00002DEFD1FFF7D0FF0BB030BD00231A4675
:10228C0019464068FFF794BA38B5046805467CB126
:10229C006368013B63605BB9236820469B68984781
:1022AC00A368013BA3601BB923682046DB689847F1
:1022BC00284638BD0B68036013B15A6801325A6066
:1022CC0070470000014A024B1A6070472F400A0801
:1022DC005001002008B50020FFF7BAFA28B1FFF72B
:1022EC00A7FA80F00100C0B208BD012008BD10B5EE
:1022FC000020FFF701F9044668B9FFF7F5F901284A
:10230C000BD12046FFF710FA38B9FFF7E3FF30B9CD
:10231C00FFF786FAF9E7012010BD002010BDFFF78A
:10232C00D9FF0020FFF7E8F8003018BF012010BDDE
:10233C0008B5FFF7DCFFBDE80840FFF7D5B8000093
:10234C00024B1A68024B1A60704700BF0000002055
:10235C005401002010B58368044613B103220146D2
:10236C009847204610BD10B50446FFF7F3FF2046F2
:10237C0010BD13B50B46044603C88DE8030093E863
:10238C00030084E803009DE8030083E8030002B027
:10239C0010BD0000034800238360034A034900F08A
:1023AC007DBF00BF580100206C00002073230A0879
:1023BC0008B5144B33B100F02BFC03681B6998472C
:1023CC00002816DC104B33B100F0DCFC03681B69F1
:1023DC009847002810DC0D4B0BB1AFF300800C4B71
:1023EC007BB100F051FC03681B699847002806DCA0
:1023FC0008BDAFF30080E5E7AFF30080EBE7AFF388
:10240C00008008BD0000000000000000000000007B
:10241C000000000008B5FFF7CBFFFFF75DF8014B9C
:10242C00186008BDE00500200248034A0349121A4F
:10243C0001F098B8004002400440024030440A08C1
:10244C0007B5002300931A466FF07701FFF77EF96A
:10245C0003B05DF804FB000007B543880A2B08D0D5
:10246C00502B09D1094B1B683BB103B05DF804EB51
:10247C001847FFF7E5FF06E0002300931A466FF0BC
:10248C007701FFF763F903B05DF804FB68010020E6
:10249C0038B5104C104D2368AB42104B0CBF0122C9
:1024AC0000221A7002D0FFF7BFFF2560FFF704F877
:1024BC00044601F085F80A4B13B12046AFF30080B7
:1024CC0000210748FFF7CCF9BDE83840002105484A
:1024DC00FFF732B9004002401E1C279A6C01002005
:1024EC000000000065240A0870470020704710B5F2
:1024FC000446102100F0D7FE204610BD08B508B1E7
:10250C00FFF7F5FF08BD002202604FF69C72828037
:10251C0010B5B1F9044084808A8002680C680460AC
:10252C000A6010BD10B504460068FFF7A9F92046F3
:10253C0010BD38B5C468F4B12378022B03D104F173
:10254C000C00FFF7EFFF656835B12846FFF702FF77
:10255C001021284600F0A7FEA56835B12846FFF7E4
:10256C00F9FE1021284600F09EFE2046BDE83840BA
:10257C00142100F098BE38BD13B5044691E805004F
:10258C0000234B600B602060626001A801930093F4
:10259C00FFF77AFE204602B010BDF7B50C46064692
:1025AC000F4654F8043B02AD45F8083D214601A8FE
:1025BC00FFF780FE29463046FFF7DEFF01A8FFF744
:1025CC0063FE2046FFF760FE3846082100F06BFEE4
:1025DC00304603B0F0BD000038B50023044603605C
:1025EC0010200D46FDF753FD28B101234360836095
:1025FC00024BC56003602060204638BDC8400A0805
:10260C00826810B50AB900F050FEC368BDE81040EE
:10261C00184708B5006800F11001FFF7F1FF08BD7D
:10262C00826810B50AB900F040FEC368BDE81040DE
:10263C00184708B5006800F11001FFF7F1FF08BD5D
:10264C0038B5002383608B6804460D462BB10222FB
:10265C009847EB68E360AB68A360204638BD000088
:10266C00F0B589B004686846FFF74DFF4FF00202E1
:10267C0000238DF80830D4E84F3F002B03D1C4E879
:10268C00412F0029F7D102D08DF8083063E014F106
:10269C000C0503D069462846FFF735FFBFF35F8F63
:1026AC0001236370BFF35F8F04F10803002053E82C
:1026BC00006F43E80002002AF9D1BFF35F8F002EB0
:1026CC0049D0FFF721F820B129463046FFF798FF93
:1026DC003AE0314602A8FFF7B3FFE068B4F91050B6
:1026EC0008B100F0FDFF06901020ADF81C50FDF76E
:1026FC00CEFC0546E8B1002787601820FDF7C7FC23
:10270C00044688B10146876002A8FFF732FE049B9D
:10271C00A268A360059B0492E26806A9E36004F139
:10272C0010000592FFF7EFFE0D4B2C60EB600D4B8C
:10273C00AB6006A8FFF7F6FE02A8FFF70BFE00221F
:10274C0029460948FEF7E8FF3046FFF703FE102143
:10275C00304600F0A8FD6846FFF7E4FE09B0F0BD76
:10276C001F260A0895280A08DD2D0A082DE9F04FC6
:10277C008BB006460F46904699469DF850A0FFF741
:10278C0057F807AD834630BB4FF62E73059005A95D
:10279C002846ADF81830FFF7B6FE1420FDF777FC8D
:1027AC00044658B10223037001234370C0F804B0EF
:1027BC00C0F808B029460C30FFF7A5FE304621467C
:1027CC0040F8044BFFF708FF2846FFF7ABFE05A8BF
:1027DC00FFF7A8FE52E000240C2314206C60AC60C0
:1027EC000793FDF754FC014618B104704470446023
:1027FC00846004A80391FFF7EFFE224B0820089396
:10280C00FDF745FC044628B1039B04A940F8043BA2
:10281C00FFF750FD00955FFA8AF34A464146384669
:10282C000994FFF70DF820B9039B5B7803F0FF02C6
:10283C0083B1039B04A906A80593FFF73BFD05A9EB
:10284C003046FFF799FE06A8FFF71EFD04A8FFF718
:10285C001BFD13E04FF69C7305A903A80592ADF878
:10286C001830FFF7FDFE05A8FFF75CFE05A80999D7
:10287C00FFF793FE06A8FFF707FDDAE730460BB02B
:10288C00BDE8F08F052A0A08022AF8B5044606D0DE
:10289C00032A17D0012A22D10B6803601FE01820ED
:1028AC000E68FDF7F4FB054650B13146FFF7C8FE44
:1028BC003069B6F9147008B100F012FF2861AF82CC
:1028CC0025600CE0046854B104F11000FFF72AFEF7
:1028DC002046FFF73FFD1821204600F0E4FC0020C5
:1028EC00F8BD38B5002383608B6804460D462BB1C8
:1028FC0002229847EB68E360AB68A360204638BDC2
:10290C00022A70B5044606D0032A11D0012A18D128
:10291C000B68036015E014200E68FDF7B8FB054644
:10292C0020B13146FFF7DDFF337C2B74256008E0C6
:10293C00046834B12046FFF70DFD1421204600F049
:10294C00B2FC002070BD0000F0B50C46BFF35F8FE9
:10295C0087B0002350E8006F40E80032002AF9D11C
:10296C00BFF35F8F002E3FD01846FEF7CDFE074613
:10297C0020B121463046FFF753FE2EE0314601A828
:10298C00FFF7AFFF237810208DF81430FDF77FFB95
:10299C000546D0B187601420FDF779FB044678B169
:1029AC008760014601A8FFF7E4FC039BA268A360C3
:1029BC00049B0392E268E3609DF814300492237444
:1029CC000A4B2C60EB600A4BAB6001A8FFF7C2FC12
:1029DC00002229460748FEF79FFE3046FFF7BAFC57
:1029EC001021304600F05FFC07B0F0BD3F260A080E
:1029FC000D290A08DD2D0A0830B5044685B00D46B0
:102A0C0068461146FFF7C9FD7CB124B228460DB1CA
:102A1C0000F066FE029002A96846ADF80C40FFF784
:102A2C001FFE02A8FFF77EFD1DE04FF0010200988B
:102A3C008DF80840D0E84F3FA34203D1C0E8412FA6
:102A4C000029F7D102D08DF808300CE010F10C0100
:102A5C004FF0010318BF0373BFF35F8F043000F80E
:102A6C00033CFFF771FF01A8FFF70EFC05B030BD6A
:102A7C00704710B50446182100F015FC204610BD17
:102A8C00F8B50F4600F10806051D002416F8011DC7
:102A9C000A223846FFF7D3FBAE42044407D0002C81
:102AAC00F4D02E213846FFF7C7FB0444EEE720464E
:102ABC00F8BD000010B50446044B112240F8043B4D
:102ACC00002100F075FD204610BD00BFE4400A084F
:102ADC000346074A10B543F8042B01F1100251F8D4
:102AEC00044B914243F8044BF9D10A781A7010BD8B
:102AFC00E4400A08024A41600260042202757047F1
:102B0C00E4400A0810B59DF8084044EA032343EA60
:102B1C00024242EA016104234160037510BD0000CA
:102B2C0037B5044D05609DF818500095FFF7EAFF86
:102B3C0003B030BDE4400A0841747047704708B5D3
:102B4C000021007CFEF790FD30EA200028BF4FF0FA
:102B5C00FF3008BD08B50121007CFEF785FD30EA89
:102B6C00200028BF4FF0FF3008BD08B5007CFEF7F1
:102B7C0073FD20EAE07008BD08B5007CFEF764FD2B
:102B8C0020EAE07008BD007CFEF77EBD10B504465F
:102B9C00142100F088FB204610BD38B50446007C9B
:102BAC000D46FEF759FD002801DC607C28B1294652
:102BBC00207CFEF761FD20EAE07038BD10B50446BC
:102BCC00002363604FF47A73A360054B08462360BF
:102BDC000123217463741146FEF72EFD204610BDAF
:102BEC00F8400A0810B504461422002100F0E0FC5D
:102BFC00054B20466360054BE36040F201132381D3
:102C0C008123238210BD00BFF50100207401002038
:102C1C0030B50E4D87B001A8FFF7E4FF296811F01D
:102C2C00010410D12846FDF745FA60B101AA2146EE
:102C3C000748FFF7C3FF2846FDF741FA054A064946
:102C4C00034800F02BFB024807B030BD7001002098
:102C5C00F80200206C000020492B0A0810B504462D
:102C6C001422002100F0A4FC054B20466360054BA8
:102C7C00E36040F2011323818123238210BD00BF46
:102C8C00A80300201003002010B50E4C86B001A83C
:102C9C00FFF7E4FF2368DB0710D42046FDF70AFAA0
:102CAC0060B101AA01210848FFF788FF2046FDF713
:102CBC0006FA064A0649044800F0F0FA024806B043
:102CCC0010BD00BF0C030020940300206C000020FA
:102CDC00492B0A0870474174704708B5007CFEF711
:102CEC004BFC20EAE07008BD08B5007CFEF724FC24
:102CFC0020EAE07008BD08B5007CFEF72DFC30EA38
:102D0C00200028BF4FF0FF3008BD08B5007CFEF74F
:102D1C001BFC30EA200028BF4FF0FF3008BD007CC0
:102D2C00FEF722BC10B50446142100F0BCFA204674
:102D3C0010BD70B5457C04460E4625B9007CFEF7E7
:102D4C001BFC002805DD3146207CBDE87040FEF7F9
:102D5C00EBBB284670BD000010B504460846114672
:102D6C00002262604FF47A72A260054A20742260DD
:102D7C00012262741A46FEF7CFFB204610BD00BF3D
:102D8C0028410A0838B50C4D296811F0010411D1FD
:102D9C002846FDF78FF968B1084A2146084B0948C7
:102DAC00FFF7DAFF2846FDF78AF9074A0749054875
:102DBC0000F074FA034838BD440500204805002093
:102DCC00C0040020AC0400206C000020E12C0A0898
:102DDC0010B5836804460BB900F067FAC3689847CE
:102DEC00A3681BB103222146204698472046BDE824
:102DFC001040102100F057BA37B502AC036804F844
:102E0C00011D9D69214613460122A84703B030BD20
:102E1C0013B502AB026803F8011DD46819460122F0
:102E2C00A04702B010BD10B403689C6947F2305340
:102E3C00A44610BC604710B504460020A06104F104
:102E4C001400FEF706FFA369636010BD70B50E4653
:102E5C00044686B016252A460021684600F0A8FBD9
:102E6C007369ADF80050002269461868FEF7D4FB70
:102E7C000DF102012046FFF72BFE204606B070BD77
:102E8C0010B5044603689B689847A368013BA36090
:102E9C002BB923682046BDE81040DB68184710BDED
:102EAC0010B50446024B0360FDF702FA204610BD34
:102EBC00C0410A0810B50446FFF7F2FF20461C215A
:102ECC0000F0F1F9204610BDF8B5154B0025036054
:102EDC00C260018145600446FEF796FB2061FEF757
:102EEC0093FB014604F11400FEF70EFF2946284619
:102EFC00FEF70AFB0B4B1A681D465AB9FEF784FB0A
:102F0C0007461C20FDF7C3F8064610B13946FEF7FC
:102F1C00FBFE2E6000210120FEF7F6FA2046F8BDDC
:102F2C000C420A08CC05002010B504461430FEF7FC
:102F3C00EDFD2069FEF750FBFEF766FB206110BD2E
:102F4C0038B504460546054B44F8143BFFF7ECFF37
:102F5C002046FDF7ADF9284638BD00BF0C420A08E3
:102F6C0010B50446FFF7ECFF2046302100F09BF92A
:102F7C00204610BDF8B50446FFF7D6FFE06800F018
:102F8C005FF90368DB689847054690B12069FEF746
:102F9C0003FB70B9E1682089FEF726FB0746FEF7B4
:102FAC00FBFA064608B1276103E02046FFF7BCFF99
:102FBC0035462846F8BD38B54B68044643608B68E7
:102FCC008360CB68C3600B6903614B6943618D6996
:102FDC0083699D420CD015B16B6801336B60A0699D
:102FEC0028B14368013B43600BB9FFF749FFA5616A
:102FFC00204638BD0C4B03604B6843600B4B0360A1
:10300C008B688360CB68C360094B03600B690361F9
:10301C00084B03604B6943618B69836113B15A6838
:10302C0001325A60704700BFAC3F0A0858410A0889
:10303C0080410A082C3F0A08F0B50C468FB00746B1
:10304C00FEF7E2FA23690546984203D1236820462D
:10305C001B699847E06800F0F3F8036804F1140664
:10306C00DB68984710B1206985420ED12046FFF7E6
:10307C005BFF164B30461968FFF79DFF314638460B
:10308C00FFF7B8FF38460FB0F0BDFEF7B5FA0446AF
:10309C00FEF782FA0028ECD0214607A8FEF734FE92
:1030AC000C9C0B4B07A901A802AD8C340793FFF7BE
:1030BC00CDFE0FCD0FC42B6807A923703046FFF748
:1030CC007AFF07A8FFF7ECFED8E700BFCC0500207D
:1030DC00C0410A08002211464068FEF761BBF0B5FA
:1030EC00164689B011220F460446002103A800F0B1
:1030FC005FFA304600F00FFB0025009581B27B682B
:10310C0003AA3046FEF7D0FA20B129462046FFF735
:10311C00F1FC03E003A92046FFF7DAFC204609B0D6
:10312C00F0BD002211464068FEF75ABB0022114642
:10313C004068FEF765BB00224068FEF759BB0022D1
:10314C0081F001014068FEF743BB00231A46194683
:10315C004068FEF735BB002211464068FEF710BBF5
:10316C00002202214068FEF713BB00231A46406878
:10317C00FEF7FEBA024B04225A60024A1A607047EC
:10318C00D005002030420A0800231A464068FEF79A
:10319C00EFBA002202214068FEF7FABA002211466B
:1031AC004068FEF7EDBA002211464068FEF7F8BA07
:1031BC0000231A4619464068FEF7FABA00231A464D
:1031CC0019464068FEF7FCBA002281F00101406804
:1031DC00FEF7FEBA00224068FEF70ABB0022114639
:1031EC004068FEF70DBB002211464068FEF7F8BAA6
:1031FC0070B516468EB0044608A8FFF75BFC11228A
:10320C00002103A800F0D4F9304600F084FA002520
:10321C000A4B009581B25B6803AA3046FEF744FA6C
:10322C0020B129462046FFF765FC03E003A92046A0
:10323C00FFF74EFC20460EB070BD00BFD00500203D
:10324C00034B044A04280CBF10461846704700BFB5
:10325C00D8050020D0050020024B034A1A6000223A
:10326C005A607047D805002064420A0813B5084C10
:10327C0000231A46194600932046FFF751FC2046BE
:10328C00044A054902B0BDE8104000F007B800BF81
:10329C00E40500206C0000207D2A0A080B4601463C
:1032AC00184600F051B9FCF7F6BE08B5FEF708FB5E
:1032BC00184B1A68D1075CBF01221A60164B1A68AA
:1032CC00D2075CBF01221A60144B1A68D0075CBF8E
:1032DC0001221A60124B1A68D1075CBF01221A60D6
:1032EC00104B1A68D2075CBF01221A600E4B1A6889
:1032FC00D0075CBF01221A600C4B1A68D1075CBF67
:10330C0001221A600A4B1A68D2075CBF01221A60AC
:10331C00704700BF1806002014060020100600207D
:10332C000C060020080600200406002000060020E1
:10333C00FC050020244B1A68D0075CBF01221A60E0
:10334C00224B1A68D1075CBF01221A60204B1A6805
:10335C00D2075CBF01221A601E4B1A68D0075CBFF3
:10336C0001221A601C4B1A68D1075CBF01221A603B
:10337C001A4B1A68D2075CBF01221A60184B1A68E4
:10338C00D0075CBF01221A60164B1A68D1075CBFCC
:10339C0001221A60144B1A68D2075CBF01221A6012
:1033AC00124B1A68D0075CBF01221A60104B1A68C6
:1033BC00D1075CBF01221A600E4B1A68D2075CBFA2
:1033CC0001221A60704700BF480600204406002006
:1033DC00400600203C060020380600203406002061
:1033EC00300600202C060020280600202406002091
:1033FC00200600201C060020244B1A68D0075CBF56
:10340C0001221A60224B1A68D1075CBF01221A6094
:10341C00204B1A68D2075CBF01221A601E4B1A6837
:10342C00D0075CBF01221A601C4B1A68D1075CBF25
:10343C0001221A601A4B1A68D2075CBF01221A606B
:10344C00184B1A68D0075CBF01221A60164B1A6819
:10345C00D1075CBF01221A60144B1A68D2075CBFFB
:10346C0001221A60124B1A68D0075CBF01221A6045
:10347C00104B1A68D1075CBF01221A600E4B1A68F8
:10348C00D2075CBF01221A60704700BF780600208B
:10349C0074060020700600206C06002068060020D0
:1034AC0064060020600600205C0600205806002000
:1034BC0054060020500600204C060020184B1A68B9
:1034CC00D1075CBF01221A60164B1A68D2075CBF89
:1034DC0001221A60144B1A68D0075CBF01221A60D3
:1034EC00124B1A68D1075CBF01221A60104B1A6884
:1034FC00D2075CBF01221A600E4B1A68D0075CBF62
:10350C0001221A600C4B1A68D1075CBF01221A60A9
:10351C000A4B1A68D2075CBF01221A60704700BFC1
:10352C009806002094060020900600208C060020AF
:10353C008806002084060020800600207C060020DF
:10354C000A22002100F0C8B910B5054C13462CB165
:10355C000A4601460220AFF3008010BD204610BD84
:10356C000000000010B5431E0A44914204D011F82B
:10357C00014B03F8014FF8E710BD884210B501EB81
:10358C00020301D8421E0BE09842FBD28118D21ADA
:10359C00D34204D013F8014D01F8014DF8E710BDEA
:1035AC00994204D011F8014B02F8014FF8E710BD15
:1035BC0003460244934202D003F8011BFAE770471A
:1035CC0038B5124B05461C68A36BD3B91820FEF70F
:1035DC004FF943F20E33A06303804AF6CD33438098
:1035EC0041F2342383804EF26D63C3804DF6EC635D
:1035FC000381052343810B23838101220023C0E92E
:10360C000423A36B00221D615A6138BD68000020A1
:10361C000D4B30B51D6810F8013BEA18527802F0DA
:10362C000302012A11F8012B08BF2033AC1864786F
:10363C0004F00304012C08BF20329B1A01D1002A8C
:10364C00E9D1184630BD00BF040000202DE9F84335
:10365C000B78074643B3164E4D1C326828461A4465
:10366C00527802F00302012A0CBF03F120041C461D
:10367C0000F051F88046E4B2B94619F8010BA0B13C
:10368C00336803445B7803F00303012B08BF20303D
:10369C00C0B2844201D04F46EEE742462946484626
:1036AC0000F042F80028F6D13846BDE8F88300BF98
:1036BC0004000020C9B2034610F8012B1AB1914244
:1036CC00F9D11846704700290CBF184600207047E6
:1036DC00034611F8012B03F8012B002AF9D170478E
:1036EC00024B0146186800F003B800BF68000020C8
:1036FC0070B5064608460C4600F00DF8451C2946E8
:10370C003046FEF7E5F8064618B12A462146FFF783
:10371C0029FF304670BD034613F8012B002AFBD15C
:10372C00181A0138704700000F4B70B51E680A4418
:10373C00914216D010F8013BF418647804F003049D
:10374C00012C11F8014B08BF203335196D7805F0A9
:10375C000305012D08BF20341B1B03D1002CE7D11E
:10376C0000E00023184670BD0400002030B582B183
:10377C00451E013915F8013F11F8014FA34206D13E
:10378C00EC431444E04201D0002BF3D11C46181B2F
:10379C0030BD104630BDF0B5037863B90B78002B03
:1037AC0018BF0020F0BD15F8012F62B114F8017F8D
:1037BC0030469742F7D00346461C007810B14D1E98
:1037CC005C1EF0E7F0BD1846F0BD00002DE9F04797
:1037DC000F4680463F48D0F800903D4615F8014B07
:1037EC0009EB0400407800F0080000F0FF0608B177
:1037FC002F46F2E72D2C03D1BD1C7C78012603E06B
:10380C002B2C04BF7C78BD1C13B1102B0AD15BE0B0
:10381C00302C57D1287800F0DF0058284DD16C7827
:10382C0010230235002E14BF4FF0004C6FF0004CEB
:10383C00BCFBF3FA0027384603FB1ACC09EB040E49
:10384C009EF801E01EF0040F01D0303C0BE01EF09E
:10385C00030E1BD0BEF1010F0CBF4FF0370E4FF013
:10386C00570ECEEB0404A34210DDB7F1FF3F0AD094
:10387C00504506D801D1644503DC03FB0040012709
:10388C0001E04FF0FF3715F8014BD7E77B1C0CD14B
:10389C00002E4FF0220314BF4FF000406FF0004099
:1038AC00C8F800302AB9BDE8F08706B1404272B1C1
:1038BC0007B1691E1160BDE8F0873024002BB1D12F
:1038CC000823AFE70A23ADE7302CA3D0AAE7BDE865
:1038DC00F08700BF0400002013460A460146024848
:1038EC000068FFF773BF00BF680000201D000A08C6
:1038FC005D000A0889000A088D000A080000000013
:10390C007B226D7367223A202248656C6C6F2057BE
:10391C006F726C6421227D006970416464726573FE
:10392C00730025642E25642E25642E256400510019
:10393C002B00253230002532310021002532320097
:10394C002200253233002300253234002400253296
:10395C0035002500253236002600253237005E0062
:10396C002532380028002532390029002532410043
:10397C002A0025324200253243002C002532440017
:10398C002D00253245002E00253246002F00253310
:10399C004100253342003B00253343003C002533D6
:1039AC0044003D00253345003E00253346003F00D2
:1039BC0025354200253543005C00253544005D006B
:1039CC0025354500253546005F0025363000600062
:1039DC00253742007B00253743007C002537440007
:1039EC00253745007E00556E6B6E6F776E00576500
:1039FC0062436C69656E742325642053746174652D
:103A0C003A20257320404D7320256C6400436F6E63
:103A1C0074656E742D4C656E6774683A00436F6EF6
:103A2C006E656374696F6E3A006B6565702D616CC1
:103A3C00697665000D0A0D0A00576562436C69656D
:103A4C006E74232564205061796C6F6164206C6501
:103A5C006E67746820256400485454502F312E3101
:103A6C002025730D0A4163636573732D436F6E7468
:103A7C00726F6C2D416C6C6F772D4F726967696E2C
:103A8C003A202A0D0A436F6E74656E742D5479704A
:103A9C00653A2025730D0A00436F6E74656E742DA4
:103AAC00456E636F64696E673A2025730D0A004397
:103ABC006F6E6E656374696F6E3A206B6565702D01
:103ACC00616C6976650D0A0043616368652D436F0F
:103ADC006E74726F6C3A206E6F2D63616368652C27
:103AEC00206E6F2D73746F72652C206D7573742D31
:103AFC00726576616C69646174650D0A00436F6E62
:103B0C0074656E742D4C656E6774683A2025640D6F
:103B1C000A0D0A2573004745542000504F5354009A
:103B2C004F5054494F4E5300576562436C69656E54
:103B3C00742325642068616E646C6548545450206D
:103B4C00456E645074537472202573204172675310
:103B5C00747220257300576562436C69656E74231B
:103B6C0025642061706920726573706F6E736520B7
:103B7C006C656E202564006170706C69636174699A
:103B8C006F6E2F6A736F6E00323030204F4B0057C0
:103B9C006562436C69656E74232564206874747067
:103BAC0020726573706F6E7365206C656E20256472
:103BBC0000576562436C69656E74232564207772C7
:103BCC0069746520746F20746370206C656E202599
:103BDC006400696E6465782E68746D6C005765625C
:103BEC00436C69656E742325642073656E64696E1D
:103BFC0067207265736F757263652025732C2025A1
:103C0C00642062797465732C2025730057656243B8
:103C1C006C69656E7423256420456E64706F696EE3
:103C2C0074202573206E6F7420666F756E64206F20
:103C3C007220696E76616C696400576562436C69C9
:103C4C00656E742325642043616E6E6F7420666903
:103C5C006E6420636F6D6D616E64206F7220617293
:103C6C00677300576562436C69656E742325642025
:103C7C0052657475726E696E6720343034204E6FE5
:103C8C007420666F756E6400746578742F706C6147
:103C9C00696E00343034204E6F7420466F756E643C
:103CAC0000576562436C69656E7423256420466F0A
:103CBC00756E64456E64706F696E74203C25733E3E
:103CCC0020547970652025640057656253657276BF
:103CDC00657253746174653A20257320656E747235
:103CEC00794D7320256C6400576562536572766557
:103CFC00723A205374617274005765625365727620
:103D0C0065723A2053746F70005765625365727612
:103D1C0065723A2052657374617274005765624320
:103D2C006C69656E742325642049502025730057F7
:103D3C006562436C69656E742325642064697363E2
:103D4C006F6E6E656374656400576562436C69657C
:103D5C006E74232564206B6565702D616C697665C6
:103D6C002074696D656F757400576562436C696585
:103D7C006E74232564206E6F2D64617461207469E8
:103D8C006D656F757400576562436C69656E74235D
:103D9C002564207265636569766564202564005727
:103DAC006562436C69656E7423256420636F756C62
:103DBC00646E27742068616E646C65207265717521
:103DCC0065737400576562436C69656E7423256472
:103DDC00207265737020636F6D706C65746500572D
:103DEC006562436C69656E742325642053656E743B
:103DFC002025732C20256420627974657320746FE0
:103E0C0074616C2C20256420626C6F636B7300579B
:103E1C006562436C69656E74232564206B656570FF
:103E2C002D616C6976652072657175657374656456
:103E3C0000576562436C69656E7423256420636C5E
:103E4C006F73696E6720636F6E6E656374696F6EF6
:103E5C000057656253657276657220544350536502
:103E6C007276657220426567696E00416464696EA2
:103E7C006720737461746963207265736F75726304
:103E8C0065202573206D696D6520257320656E6333
:103E9C006F64696E67202573206C656E2025640045
:103EAC0053746F707065640057616974436F6E6E04
:103EBC0000426567756E004E6F6E65004163636509
:103ECC007074656400576169740053656E6400001A
:103EDC00C33E0A08C83E0A08D13E0A08D63E0A0864
:103EEC000000000000000000BD090A08E5090A08EE
:103EFC00AC3E0A08B43E0A08BD3E0A0800000000A9
:103F0C000000000085190A088B190A08A31D0A086D
:103F1C0099190A0887190A0800000000000000001F
:103F2C00BD020A08DD020A0841190A085B190A08D1
:103F3C00A11A0A080B1A0A08DD190A0883190A08BB
:103F4C004D1B0A08BD1D0A083F1A0A08191B0A084E
:103F5C009B1C0A08ED1C0A086B190A085F1C0A084E
:103F6C00BD190A08776972696E6700544350436C37
:103F7C0069656E7420736F636B65743D2578000002
:103F8C000000000000000000291E0A082B1E0A0871
:103F9C000F200A08C31F0A080000000000000000E0
:103FAC000000000000000000AD000A08F9210A081A
:103FBC00626175640053657269616C0055534253BC
:103FCC00657269616C310074797065007061726141
:103FDC006D00636D6400686E64007374726D0066CE
:103FEC00696C74006C766C0061646448616E646C1E
:103FFC0065720072656D6F766548616E646C657292
:10400C0000656E756D48616E646C657273004A5321
:10401C004F4E53747265616D4C6F6748616E646C82
:10402C0065720061707000253031307520005D20A4
:10403C00002C200028293A2000205B00636F646567
:10404C00203D200025690064657461696C73203D16
:10405C00200066006C6E00666E00636F6465006421
:10406C00657461696C006E6F6E6500747261636576
:10407C0000696E666F007761726E006572726F72A6
:10408C000070616E696300616C6C005A00252B3006
:10409C0033643A253032750025592D256D2D256454
:1040AC005425483A254D3A2553257A00617363749B
:1040BC00696D65000000000000000000F5240A088E
:1040CC00FB240A083F250A0809250A08F7240A08D0
:1040DC0000000000000000008D2A0A087D2A0A0852
:1040EC007F2A0A080000000000000000492B0A0883
:1040FC00992B0A08A72B0A08F9210A08852B0A080C
:10410C004B2B0A08612B0A08932B0A08772B0A08F9
:10411C00452B0A080000000000000000E12C0A08F2
:10412C00312D0A083F2D0A08F9210A08F52C0A0836
:10413C00172D0A08032D0A082B2D0A08E32C0A0850
:10414C00E72C0A080000000000000000000000003E
:10415C0000000000AD000A08F9210A08AD000A08A9
:10416C00AD000A08AD000A08AD000A080000000006
:10417C00000000000000000000000000AD000A0874
:10418C00AD000A08AD000A08AD000A08AD000A0827
:10419C00AD000A08AD000A08AD000A08AD000A0817
:1041AC00AD000A08AD000A08AD000A0800000000C6
:1041BC0000000000AD2E0A08C12E0A0841190A0899
:1041CC005B190A08A11A0A080B1A0A08DD190A0851
:1041DC0083190A084D1B0A08BD1D0A083F1A0A0854
:1041EC00191B0A089B1C0A08ED1C0A086B190A0803
:1041FC005F1C0A08592E0A0800000000000000008D
:10420C004D2F0A086D2F0A081D2E0A08332E0A0896
:10421C00812F0A08052E0A08432E0A080000000008
:10422C000000000077310A086D310A0863310A0872
:10423C00E1300A0889220A0857310A084B310A086A
:10424C0043310A0839310A082F310A08EB300A08C1
:10425C00000000000000000095310A089F310A0898
:10426C00A9310A08B3310A08BD310A08C9310A0854
:10427C00D5310A08E1310A08E9310A08F3310A0894
:10428C00FD310A0800202020202020202020282872
:10429C0028282820202020202020202020202020FA
:1042AC00202020202088101010101010101010103A
:1042BC00101010101004040404040404040404106A
:1042CC0010101010101041414141414101010101F8
:1042DC0001010101010101010101010101010101C2
:1042EC0010101010101042424242424202020202CE
:1042FC000202020202020202020202020202020292
:10430C001010101020000000000000000000000041
:10431C000000000000000000000000000000000091
:10432C000000000000000000000000000000000081
:10433C000000000000000000000000000000000071
:10434C000000000000000000000000000000000061
:10435C000000000000000000000000000000000051
:10436C000000000000000000000000000000000041
:10437C000000000000000000000000000000000031
:10438C000000000000000000000000000000000021
:10439C000000000000000000000000000000000011
:1043AC000000000000000000000000000000000001
:1043BC0000000000000000000000000000000000F1
:1043CC0000000000000000000000000000000000E1
:1043DC0000000000000000000000000000000000D1
:1043EC0000000000000000006D020A08AF140A086B
:1043FC000D190A08D1220A084D230A08A1230A081C
:10440C0081310A0865320A0879320A08BD320A0875
:10441C0041330A0805340A08C9340A0800000000B0
:04442C00000000008C
:044430000000000088
:10443400B8400A0890420A080000000094430A08A1
:10444400B4430A08D4430A08000000000000000036
:10445400000000000000000084390A080000000089
:104464000000000000000000000000000000000048
:104474000000000000000000000000000000000038
:104484000000000000000000000000000000000028
:0C449400000000000000000008000020F4
:1044A000FFFFFFFF00000102030405060708090AD9
:1044B0000B0C0D0E0F101112131415161718191AD4
:0844C0001B1C1D1E1F2028001B
:0444C80078563412DC
:04000005080A001CC9
:00000001FF
